:1000000045C0000060C000005EC000005CC0000091
:100010005AC0000058C0000056C0000054C0000084
:1000200052C0000050C000004EC000004CC0000094
:100030004AC000006DC0000046C0000044C000007F
:1000400042C0000040C000003EC000003CC00000B4
:100050003AC0000038C0000036C0000034C00000C4
:1000600032C0000030C000002EC000002CC00000D4
:100070002AC0000028C0000026C0000024C00000E4
:1000800022C0000020C000001EC0000011241FBEBE
:10009000CFEFD0E4DEBFCDBF11E0A0E0B1E0E2ECF5
:1000A000F3E000E00BBF02C007900D92A430B1074F
:1000B000D9F721E0A4E0B1E001C01D92AC30B20755
:1000C000E1F771D17CC19CCF8BE0809381008DE7FB
:1000D00090E0909389008093880082E080936F0085
:1000E000109285001092840080910001909101018E
:1000F000A0910201B0910301809306019093070142
:10010000A0930801B09309018FB780688FBF08954D
:100110001F920F920FB60F9211248F939F93AF935C
:10012000BF938091060190910701A0910801B091C1
:1001300009010197A109B109809306019093070174
:10014000A0930801B0930901892B8A2B8B2B99F47A
:1001500081E080930A018091000190910101A091BA
:100160000201B09103018093060190930701A093CF
:100170000801B0930901BF91AF919F918F910F90AA
:100180000FBE0F901F9018956093000170930101AE
:10019000809302019093030160930601709307011D
:1001A0008093080190930901089547E050E0A82F3B
:1001B000B0E0E8B19D01042E02C0359527950A9460
:1001C000E2F7622F617070E020FF03C09E2F916004
:1001D00004C0672B11F49E2F9E7F98B94298429AD3
:1001E0004150510930F74198419A0895EAE7F0E00B
:1001F0008081806E80830895883060F0ECE7F0E0C5
:10020000808180838FE000008150E9F78FE0809348
:100210000401089580937C00F5CFBF92CF92DF92C6
:10022000EF92FF920F931F93CF93DF93209178006B
:100230003091790080910B01813051F028F08230AB
:1002400081F0833099F01CC081E080930B0120C0C5
:100250002C52314021393140D8F082E080930B019B
:100260001EC0049903C081E080930B01049904C06F
:1002700081E080930B010CC083E080930B0174C07C
:10028000823069F0833009F46FC0813009F081C099
:1002900087EE8BB988E189DF109205017AC064E6A8
:1002A00070E080E090E070DF0FDFDFE1C1E00F2E53
:1002B000F8E7EF2EF12CF02DDD24D3940F2EF8EF7C
:1002C000BF2EF02D00E00F2EFFE1CF2EF02DF70115
:1002D00080819181CC230CF0CC0FC034F0F0DF3161
:1002E00009F048C08C32F1E09F0708F04AC08091C5
:1002F00005018F5F80930501DB2DC1E0102F27C022
:100300008D3B22E09207C8F1809105018F5F8093B9
:100310000501DC2DC1E0102F1AC0C038A1F4DF3177
:1003200041F41D2D8D32914008F4102FDC2DC0E8D2
:100330000EC0D83F51F41D2D8C3B924008F0102F79
:10034000DB2DC0E804C0102F02C0C0E8102FCBB9CD
:100350008D2F2BDF80910A018823E1F300930A019E
:10036000112309F4B4CF15C081E08BB98091050148
:100370001CDF0FC0D83F49F4C3CFC038E1F2102FC3
:10038000E6CFC03871F2102FE2CFC03891F2102FB3
:10039000DECFDF91CF911F910F91FF90EF90DF9013
:1003A000CF90BF9008958FEF8AB91BB887B918B85E
:1003B00011B882B91BDF81E01FDF2FDFFECFF89479
:0203C000FFCF6D
:0403C2000100000036
:00000001FF
